{
  "contracts/RPSToken.sol": {
    "RPSToken": {
      "abi": [
        {
          "inputs": [],
          "name": "mint",
          "outputs": [],
          "stateMutability": "nonpayable",
          "type": "function"
        }
      ],
      "evm": {
        "bytecode": {
          "linkReferences": {},
          "object": "6080604052348015600f57600080fd5b50606d80601d6000396000f3fe6080604052348015600f57600080fd5b506004361060285760003560e01c80631249c58b14602d575b600080fd5b60336035565b005b56fea2646970667358221220a0318792ee6c79d4700cc9500ae6fa480d239844db01f259e6556ecd91ccc56764736f6c63430008090033",
          "opcodes": "PUSH1 0x80 PUSH1 0x40 MSTORE CALLVALUE DUP1 ISZERO PUSH1 0xF JUMPI PUSH1 0x0 DUP1 REVERT JUMPDEST POP PUSH1 0x6D DUP1 PUSH1 0x1D PUSH1 0x0 CODECOPY PUSH1 0x0 RETURN INVALID PUSH1 0x80 PUSH1 0x40 MSTORE CALLVALUE DUP1 ISZERO PUSH1 0xF JUMPI PUSH1 0x0 DUP1 REVERT JUMPDEST POP PUSH1 0x4 CALLDATASIZE LT PUSH1 0x28 JUMPI PUSH1 0x0 CALLDATALOAD PUSH1 0xE0 SHR DUP1 PUSH4 0x1249C58B EQ PUSH1 0x2D JUMPI JUMPDEST PUSH1 0x0 DUP1 REVERT JUMPDEST PUSH1 0x33 PUSH1 0x35 JUMP JUMPDEST STOP JUMPDEST JUMP INVALID LOG2 PUSH5 0x6970667358 0x22 SLT KECCAK256 LOG0 BALANCE DUP8 SWAP3 0xEE PUSH13 0x79D4700CC9500AE6FA480D2398 DIFFICULTY 0xDB ADD CALLCODE MSIZE 0xE6 SSTORE PUSH15 0xCD91CCC56764736F6C634300080900 CALLER "
        },
        "methodIdentifiers": {
          "mint()": "1249c58b"
        }
      }
    }
  }
}