{
  "_format": "hh-sol-artifact-1",
  "contractName": "RPS",
  "sourceName": "contracts/RPS.sol",
  "abi": [
    {
      "anonymous": false,
      "inputs": [
        {
          "indexed": false,
          "internalType": "address",
          "name": "winner",
          "type": "address"
        },
        {
          "indexed": false,
          "internalType": "uint256",
          "name": "winnings",
          "type": "uint256"
        }
      ],
      "name": "Finished",
      "type": "event"
    },
    {
      "anonymous": false,
      "inputs": [
        {
          "indexed": false,
          "internalType": "address",
          "name": "_player1",
          "type": "address"
        },
        {
          "indexed": false,
          "internalType": "address",
          "name": "_player2",
          "type": "address"
        },
        {
          "indexed": false,
          "internalType": "uint256",
          "name": "_wager",
          "type": "uint256"
        },
        {
          "indexed": false,
          "internalType": "bytes32",
          "name": "_encrMovePlayer1",
          "type": "bytes32"
        },
        {
          "indexed": false,
          "internalType": "bytes32",
          "name": "_encrMovePlayer2",
          "type": "bytes32"
        }
      ],
      "name": "NewGame",
      "type": "event"
    },
    {
      "inputs": [],
      "name": "enroll",
      "outputs": [],
      "stateMutability": "payable",
      "type": "function"
    },
    {
      "inputs": [],
      "name": "evaluate",
      "outputs": [],
      "stateMutability": "nonpayable",
      "type": "function"
    },
    {
      "inputs": [],
      "name": "getContractBalance",
      "outputs": [
        {
          "internalType": "uint256",
          "name": "",
          "type": "uint256"
        }
      ],
      "stateMutability": "view",
      "type": "function"
    },
    {
      "inputs": [],
      "name": "getWager",
      "outputs": [
        {
          "internalType": "uint256",
          "name": "",
          "type": "uint256"
        }
      ],
      "stateMutability": "view",
      "type": "function"
    },
    {
      "inputs": [
        {
          "internalType": "enum RPS.Moves",
          "name": "move",
          "type": "uint8"
        }
      ],
      "name": "hash",
      "outputs": [
        {
          "internalType": "bytes32",
          "name": "",
          "type": "bytes32"
        }
      ],
      "stateMutability": "nonpayable",
      "type": "function"
    },
    {
      "inputs": [
        {
          "internalType": "bytes32",
          "name": "encrMove",
          "type": "bytes32"
        }
      ],
      "name": "play",
      "outputs": [
        {
          "internalType": "bool",
          "name": "",
          "type": "bool"
        }
      ],
      "stateMutability": "nonpayable",
      "type": "function"
    },
    {
      "inputs": [],
      "name": "timer",
      "outputs": [
        {
          "internalType": "uint256",
          "name": "",
          "type": "uint256"
        }
      ],
      "stateMutability": "view",
      "type": "function"
    },
    {
      "inputs": [],
      "name": "wager",
      "outputs": [
        {
          "internalType": "uint256",
          "name": "",
          "type": "uint256"
        }
      ],
      "stateMutability": "view",
      "type": "function"
    }
  ],
  "bytecode": "0x608060405234801561001057600080fd5b50611c93806100206000396000f3fe60806040526004361061007b5760003560e01c8063c7a1865b1161004e578063c7a1865b14610118578063cc8ee48914610155578063d5656ccf14610192578063e65f2a7e146101bd5761007b565b8063667d5d22146100805780636f9fb98a146100ab5780637daa9efc146100d657806388c9cb3c146100ed575b600080fd5b34801561008c57600080fd5b506100956101c7565b6040516100a29190611399565b60405180910390f35b3480156100b757600080fd5b506100c06101cd565b6040516100cd9190611399565b60405180910390f35b3480156100e257600080fd5b506100eb6102bd565b005b3480156100f957600080fd5b506101026106b0565b60405161010f9190611399565b60405180910390f35b34801561012457600080fd5b5061013f600480360381019061013a91906113ef565b6106b6565b60405161014c9190611437565b60405180910390f35b34801561016157600080fd5b5061017c60048036038101906101779190611477565b610b44565b60405161018991906114b3565b60405180910390f35b34801561019e57600080fd5b506101a7610c81565b6040516101b49190611399565b60405180910390f35b6101c5610c8a565b005b60005481565b6000600160009054906101000a900473ffffffffffffffffffffffffffffffffffffffff1673ffffffffffffffffffffffffffffffffffffffff163373ffffffffffffffffffffffffffffffffffffffff1614806102785750600260009054906101000a900473ffffffffffffffffffffffffffffffffffffffff1673ffffffffffffffffffffffffffffffffffffffff163373ffffffffffffffffffffffffffffffffffffffff16145b6102b7576040517f08c379a00000000000000000000000000000000000000000000000000000000081526004016102ae90611551565b60405180910390fd5b47905090565b6000600554141580156102de575061012c6005546102db91906115a0565b42115b156103c657600160009054906101000a900473ffffffffffffffffffffffffffffffffffffffff1673ffffffffffffffffffffffffffffffffffffffff166108fc6000549081150290604051600060405180830381858888f1935050505015801561034d573d6000803e3d6000fd5b50600260009054906101000a900473ffffffffffffffffffffffffffffffffffffffff1673ffffffffffffffffffffffffffffffffffffffff166108fc6000549081150290604051600060405180830381858888f193505050501580156103b8573d6000803e3d6000fd5b506103c1610f9d565b6106ae565b600260149054906101000a900460ff16610415576040517f08c379a000000000000000000000000000000000000000000000000000000000815260040161040c90611668565b60405180910390fd5b60076000600160009054906101000a900473ffffffffffffffffffffffffffffffffffffffff1673ffffffffffffffffffffffffffffffffffffffff1673ffffffffffffffffffffffffffffffffffffffff16815260200190815260200160002060006101000a81549060ff021916905560076000600260009054906101000a900473ffffffffffffffffffffffffffffffffffffffff1673ffffffffffffffffffffffffffffffffffffffff1673ffffffffffffffffffffffffffffffffffffffff16815260200190815260200160002060006101000a81549060ff0219169055600080600160405160200161050c9190611726565b604051602081830303815290604052805190602001209050600060026040516020016105389190611726565b604051602081830303815290604052805190602001209050600060036040516020016105649190611726565b6040516020818303038152906040528051906020012090508260035414801561058e575081600454145b806105a75750806003541480156105a6575082600454145b5b806105c05750816003541480156105bf575080600454145b5b156105ef57600260009054906101000a900473ffffffffffffffffffffffffffffffffffffffff169350610667565b82600354148015610601575082600454145b8061061a575081600354148015610619575081600454145b5b80610633575080600354148015610632575080600454145b5b1561064057309350610666565b600160009054906101000a900473ffffffffffffffffffffffffffffffffffffffff1693505b5b6106708461100b565b7f2a5c3ee768d1c9d9e961d2a5461ad9e60b0182d849dfa1219c72416682c1b4fe84476040516106a1929190611782565b60405180910390a1505050505b565b61012c81565b60008073ffffffffffffffffffffffffffffffffffffffff16600160009054906101000a900473ffffffffffffffffffffffffffffffffffffffff1673ffffffffffffffffffffffffffffffffffffffff16141580156107655750600073ffffffffffffffffffffffffffffffffffffffff16600260009054906101000a900473ffffffffffffffffffffffffffffffffffffffff1673ffffffffffffffffffffffffffffffffffffffff1614155b6107a4576040517f08c379a000000000000000000000000000000000000000000000000000000000815260040161079b9061181d565b60405180910390fd5b60016040516020016107b69190611726565b604051602081830303815290604052805190602001208214806107ff575060026040516020016107e69190611726565b6040516020818303038152906040528051906020012082145b80610830575060036040516020016108179190611726565b6040516020818303038152906040528051906020012082145b61086f576040517f08c379a000000000000000000000000000000000000000000000000000000000815260040161086690611889565b60405180910390fd5b6001600760003373ffffffffffffffffffffffffffffffffffffffff1673ffffffffffffffffffffffffffffffffffffffff16815260200190815260200160002060009054906101000a900460ff1660ff161115610902576040517f08c379a00000000000000000000000000000000000000000000000000000000081526004016108f99061191b565b60405180910390fd5b6002600760003373ffffffffffffffffffffffffffffffffffffffff1673ffffffffffffffffffffffffffffffffffffffff16815260200190815260200160002060008282829054906101000a900460ff1661095e9190611948565b92506101000a81548160ff021916908360ff160217905550600080600160009054906101000a900473ffffffffffffffffffffffffffffffffffffffff1673ffffffffffffffffffffffffffffffffffffffff163373ffffffffffffffffffffffffffffffffffffffff161480156109da57506000801b600354145b156109ef578360038190555060019150610a71565b600260009054906101000a900473ffffffffffffffffffffffffffffffffffffffff1673ffffffffffffffffffffffffffffffffffffffff163373ffffffffffffffffffffffffffffffffffffffff16148015610a5057506000801b600454145b15610a65578360048190555060019050610a70565b600092505050610b3f565b5b818015610a7b5750805b15610a9c576001600260146101000a81548160ff0219169083151502179055505b60006005541415610aaf57426005819055505b7fe321ec725ac83fe4b69c2eac14c7bdb2c49359daf36acf1447e91688b1d80c70600160009054906101000a900473ffffffffffffffffffffffffffffffffffffffff16600260009054906101000a900473ffffffffffffffffffffffffffffffffffffffff16600054600354600454604051610b309594939291906119de565b60405180910390a16001925050505b919050565b60006001600660003373ffffffffffffffffffffffffffffffffffffffff1673ffffffffffffffffffffffffffffffffffffffff16815260200190815260200160002060009054906101000a900460ff1660ff161115610bd9576040517f08c379a0000000000000000000000000000000000000000000000000000000008152600401610bd09061191b565b60405180910390fd5b6002600660003373ffffffffffffffffffffffffffffffffffffffff1673ffffffffffffffffffffffffffffffffffffffff16815260200190815260200160002060008282829054906101000a900460ff16610c359190611948565b92506101000a81548160ff021916908360ff160217905550600082604051602001610c609190611726565b60405160208183030381529060405280519060200120905080915050919050565b60008054905090565b600073ffffffffffffffffffffffffffffffffffffffff16600160009054906101000a900473ffffffffffffffffffffffffffffffffffffffff1673ffffffffffffffffffffffffffffffffffffffff161480610d355750600073ffffffffffffffffffffffffffffffffffffffff16600260009054906101000a900473ffffffffffffffffffffffffffffffffffffffff1673ffffffffffffffffffffffffffffffffffffffff16145b610d74576040517f08c379a0000000000000000000000000000000000000000000000000000000008152600401610d6b90611a7d565b60405180910390fd5b600054341015610db9576040517f08c379a0000000000000000000000000000000000000000000000000000000008152600401610db090611b0f565b60405180910390fd5b600073ffffffffffffffffffffffffffffffffffffffff16600160009054906101000a900473ffffffffffffffffffffffffffffffffffffffff1673ffffffffffffffffffffffffffffffffffffffff161415610edb5733600160006101000a81548173ffffffffffffffffffffffffffffffffffffffff021916908373ffffffffffffffffffffffffffffffffffffffff16021790555034600081905550610e976040518060400160405280600d81526020017f257320697320706c617965723100000000000000000000000000000000000000815250336110a2565b610ed66040518060400160405280601581526020017f257320697320706c6179657231277320776167657200000000000000000000008152503461113e565b610f9b565b33600260006101000a81548173ffffffffffffffffffffffffffffffffffffffff021916908373ffffffffffffffffffffffffffffffffffffffff160217905550610f5b6040518060400160405280600d81526020017f257320697320706c617965723200000000000000000000000000000000000000815250336110a2565b610f9a6040518060400160405280601581526020017f257320697320706c6179657232277320776167657200000000000000000000008152503461113e565b5b565b60008055600160006101000a81549073ffffffffffffffffffffffffffffffffffffffff0219169055600260006101000a81549073ffffffffffffffffffffffffffffffffffffffff0219169055600260146101000a81549060ff0219169055600360009055600460009055565b3073ffffffffffffffffffffffffffffffffffffffff168173ffffffffffffffffffffffffffffffffffffffff16141561109557611090600160009054906101000a900473ffffffffffffffffffffffffffffffffffffffff16600260009054906101000a900473ffffffffffffffffffffffffffffffffffffffff166000546111da565b61109f565b61109e816112d5565b5b50565b61113a82826040516024016110b8929190611bb7565b6040516020818303038152906040527f319af333000000000000000000000000000000000000000000000000000000007bffffffffffffffffffffffffffffffffffffffffffffffffffffffff19166020820180517bffffffffffffffffffffffffffffffffffffffffffffffffffffffff8381831617835250505050611357565b5050565b6111d68282604051602401611154929190611be7565b6040516020818303038152906040527f9710a9d0000000000000000000000000000000000000000000000000000000007bffffffffffffffffffffffffffffffffffffffffffffffffffffffff19166020820180517bffffffffffffffffffffffffffffffffffffffffffffffffffffffff8381831617835250505050611357565b5050565b6111e2610f9d565b60008373ffffffffffffffffffffffffffffffffffffffff168260405161120890611c48565b60006040518083038185875af1925050503d8060008114611245576040519150601f19603f3d011682016040523d82523d6000602084013e61124a565b606091505b505090508061125857600080fd5b60008373ffffffffffffffffffffffffffffffffffffffff164760405161127e90611c48565b60006040518083038185875af1925050503d80600081146112bb576040519150601f19603f3d011682016040523d82523d6000602084013e6112c0565b606091505b50509050806112ce57600080fd5b5050505050565b6112dd610f9d565b60008173ffffffffffffffffffffffffffffffffffffffff164760405161130390611c48565b60006040518083038185875af1925050503d8060008114611340576040519150601f19603f3d011682016040523d82523d6000602084013e611345565b606091505b505090508061135357600080fd5b5050565b60008151905060006a636f6e736f6c652e6c6f679050602083016000808483855afa5050505050565b6000819050919050565b61139381611380565b82525050565b60006020820190506113ae600083018461138a565b92915050565b600080fd5b6000819050919050565b6113cc816113b9565b81146113d757600080fd5b50565b6000813590506113e9816113c3565b92915050565b600060208284031215611405576114046113b4565b5b6000611413848285016113da565b91505092915050565b60008115159050919050565b6114318161141c565b82525050565b600060208201905061144c6000830184611428565b92915050565b6004811061145f57600080fd5b50565b60008135905061147181611452565b92915050565b60006020828403121561148d5761148c6113b4565b5b600061149b84828501611462565b91505092915050565b6114ad816113b9565b82525050565b60006020820190506114c860008301846114a4565b92915050565b600082825260208201905092915050565b7f596f75206d757374206265206120706c6179657220746f20766965772074686560008201527f20706f742062616c616e63650000000000000000000000000000000000000000602082015250565b600061153b602c836114ce565b9150611546826114df565b604082019050919050565b6000602082019050818103600083015261156a8161152e565b9050919050565b7f4e487b7100000000000000000000000000000000000000000000000000000000600052601160045260246000fd5b60006115ab82611380565b91506115b683611380565b9250827fffffffffffffffffffffffffffffffffffffffffffffffffffffffffffffffff038211156115eb576115ea611571565b5b828201905092915050565b7f626f746820706c6179657273206d757374206d616b65207468656972206d6f7660008201527f6500000000000000000000000000000000000000000000000000000000000000602082015250565b60006116526021836114ce565b915061165d826115f6565b604082019050919050565b6000602082019050818103600083015261168181611645565b9050919050565b7f4e487b7100000000000000000000000000000000000000000000000000000000600052602160045260246000fd5b600481106116c8576116c7611688565b5b50565b60008190506116d9826116b7565b919050565b60006116e9826116cb565b9050919050565b60008160f81b9050919050565b6000611708826116f0565b9050919050565b61172061171b826116de565b6116fd565b82525050565b6000611732828461170f565b60018201915081905092915050565b600073ffffffffffffffffffffffffffffffffffffffff82169050919050565b600061176c82611741565b9050919050565b61177c81611761565b82525050565b60006040820190506117976000830185611773565b6117a4602083018461138a565b9392505050565b7f626f746820706c6179657273206d75737420656e726f6c6c20746f207374617260008201527f74207468652067616d6500000000000000000000000000000000000000000000602082015250565b6000611807602a836114ce565b9150611812826117ab565b604082019050919050565b60006020820190508181036000830152611836816117fa565b9050919050565b7f4d75737420656e74657220612076616c6964206d6f7665000000000000000000600082015250565b60006118736017836114ce565b915061187e8261183d565b602082019050919050565b600060208201905081810360008301526118a281611866565b9050919050565b7f796f75206861766520616c726561647920656e7465726564207468697320667560008201527f6e6374696f6e0000000000000000000000000000000000000000000000000000602082015250565b60006119056026836114ce565b9150611910826118a9565b604082019050919050565b60006020820190508181036000830152611934816118f8565b9050919050565b600060ff82169050919050565b60006119538261193b565b915061195e8361193b565b92508260ff0382111561197457611973611571565b5b828201905092915050565b6000819050919050565b60006119a461199f61199a84611741565b61197f565b611741565b9050919050565b60006119b682611989565b9050919050565b60006119c8826119ab565b9050919050565b6119d8816119bd565b82525050565b600060a0820190506119f360008301886119cf565b611a0060208301876119cf565b611a0d604083018661138a565b611a1a60608301856114a4565b611a2760808301846114a4565b9695505050505050565b7f536f7272792067616d652069732066756c6c0000000000000000000000000000600082015250565b6000611a676012836114ce565b9150611a7282611a31565b602082019050919050565b60006020820190508181036000830152611a9681611a5a565b9050919050565b7f796f75206d75737420656e74657220612076616c7565203e3d20706c6179657260008201527f3127732062657400000000000000000000000000000000000000000000000000602082015250565b6000611af96027836114ce565b9150611b0482611a9d565b604082019050919050565b60006020820190508181036000830152611b2881611aec565b9050919050565b600081519050919050565b60005b83811015611b58578082015181840152602081019050611b3d565b83811115611b67576000848401525b50505050565b6000601f19601f8301169050919050565b6000611b8982611b2f565b611b9381856114ce565b9350611ba3818560208601611b3a565b611bac81611b6d565b840191505092915050565b60006040820190508181036000830152611bd18185611b7e565b9050611be06020830184611773565b9392505050565b60006040820190508181036000830152611c018185611b7e565b9050611c10602083018461138a565b9392505050565b600081905092915050565b50565b6000611c32600083611c17565b9150611c3d82611c22565b600082019050919050565b6000611c5382611c25565b915081905091905056fea264697066735822122026ab34691d9fa5223214118a09d09e32da19c49cc31d32c48e9be37bfb4a250a64736f6c63430008090033",
  "linkReferences": {},
  "deployedLinkReferences": {}
}