{
  "_format": "hh-sol-artifact-1",
  "contractName": "RPSToken",
  "sourceName": "contracts/RPSToken.sol",
  "abi": [
    {
      "inputs": [],
      "name": "mint",
      "outputs": [],
      "stateMutability": "nonpayable",
      "type": "function"
    }
  ],
  "bytecode": "0x6080604052348015600f57600080fd5b50606d80601d6000396000f3fe6080604052348015600f57600080fd5b506004361060285760003560e01c80631249c58b14602d575b600080fd5b60336035565b005b56fea2646970667358221220a0318792ee6c79d4700cc9500ae6fa480d239844db01f259e6556ecd91ccc56764736f6c63430008090033",
  "linkReferences": {},
  "deployedLinkReferences": {}
}